{
  "contractName": "owned",
  "abi": [
    {
      "constant": true,
      "inputs": [],
      "name": "owner",
      "outputs": [
        {
          "name": "",
          "type": "address"
        }
      ],
      "payable": false,
      "stateMutability": "view",
      "type": "function"
    },
    {
      "constant": false,
      "inputs": [
        {
          "name": "newOwner",
          "type": "address"
        }
      ],
      "name": "transferOwnership",
      "outputs": [],
      "payable": false,
      "stateMutability": "nonpayable",
      "type": "function"
    },
    {
      "inputs": [],
      "payable": false,
      "stateMutability": "nonpayable",
      "type": "constructor"
    }
  ],
  "bytecode": "0x6060604052341561000f57600080fd5b336000806101000a81548173ffffffffffffffffffffffffffffffffffffffff021916908373ffffffffffffffffffffffffffffffffffffffff1602179055506101ce8061005e6000396000f30060606040526004361061004c576000357c0100000000000000000000000000000000000000000000000000000000900463ffffffff1680638da5cb5b14610051578063f2fde38b146100a6575b600080fd5b341561005c57600080fd5b6100646100df565b604051808273ffffffffffffffffffffffffffffffffffffffff1673ffffffffffffffffffffffffffffffffffffffff16815260200191505060405180910390f35b34156100b157600080fd5b6100dd600480803573ffffffffffffffffffffffffffffffffffffffff16906020019091905050610104565b005b6000809054906101000a900473ffffffffffffffffffffffffffffffffffffffff1681565b6000809054906101000a900473ffffffffffffffffffffffffffffffffffffffff1673ffffffffffffffffffffffffffffffffffffffff163373ffffffffffffffffffffffffffffffffffffffff1614151561015f57600080fd5b806000806101000a81548173ffffffffffffffffffffffffffffffffffffffff021916908373ffffffffffffffffffffffffffffffffffffffff160217905550505600a165627a7a72305820f55d0377b7694a2ca83e03aba146507a46432a3e8898a9d85cbf5d91fbb425e60029",
  "source": "pragma solidity ^0.4.2;\n\nimport \"./ConvertLib.sol\";\n\n// This is just a simple example of a coin-like contract.\n// It is not standards compatible and cannot be expected to talk to other\n// coin/token contracts. If you want to create a standards-compliant\n// token, see: https://github.com/ConsenSys/Tokens. Cheers!\n\ncontract owned {\n    address public owner;\n\n    function owned() public {\n        owner = msg.sender;\n    }\n\n    modifier onlyOwner {\n        require(msg.sender == owner);\n        _;\n    }\n\n    function transferOwnership(address newOwner) public onlyOwner {\n        owner = newOwner;\n    }\n}\n\ncontract IdeoCoin is owned {\n  // public variables of the token\n  string public name;\n  string public symbol;\n  uint8 public decimals = 18;\n  uint256 public totalSupply;\n\n  // array of all balances\n  mapping (address => uint) public balanceOf;\n  // public event on the blockchain that will notify clients\n  /* event Transfer(address indexed from, address indexed to, uint256 value); */\n\n  // contstructor function\n  function IdeoCoin(uint256 initialSupply, string tokenName, string tokenSymbol, uint8 decimalUnits, address centralMinter) public {\n      balanceOf[msg.sender] = initialSupply;\n      name = tokenName;                                   // Set the name for display purposes\n      symbol = tokenSymbol;                               // Set the symbol for display purposes\n      decimals = decimalUnits;                             // Amount of decimals for display purposes\n      totalSupply = initialSupply * 10 ** uint256(decimals);\n      if (centralMinter != 0 ) owner = centralMinter;\n  }\n\n  function sendCoin(address _to, uint256 _value) public {\n      /* Check if sender has balance and for overflows */\n      require(balanceOf[msg.sender] >= _value && balanceOf[_to] + _value >= balanceOf[_to]);\n\n      /* Add and subtract new balances */\n      balanceOf[msg.sender] -= _value;\n      balanceOf[_to] += _value;\n      /* Notify anyone listening that this transfer took place */\n      /* Transfer(msg.sender, _to, _value); */\n  }\n\n  /* Internal transfer, can only be called by this contract */\n  function _transfer(address _from, address _to, uint _value) internal {\n      require (_to != 0x0);                               // Prevent transfer to 0x0 address. Use burn() instead\n      require (balanceOf[_from] >= _value);                // Check if the sender has enough\n      require (balanceOf[_to] + _value > balanceOf[_to]); // Check for overflows\n    //   require(!frozenAccount[_from]);                     // Check if sender is frozen\n    //   require(!frozenAccount[_to]);                       // Check if recipient is frozen\n      balanceOf[_from] -= _value;                         // Subtract from the sender\n      balanceOf[_to] += _value;                           // Add the same to the recipient\n      /* Transfer(_from, _to, _value); */\n  }\n\n     function mintToken(address target, uint256 mintedAmount) onlyOwner public {\n        balanceOf[target] += mintedAmount;\n        totalSupply += mintedAmount;\n        /* Transfer(0, this, mintedAmount);\n        Transfer(this, target, mintedAmount); */\n    }\n\n    function getBalanceInEth(address addr) public view returns(uint) {\n      return ConvertLib.convert(getBalance(addr),2);\n    }\n\n    function getBalance(address addr) public view returns(uint) {\n      return balanceOf[addr];\n    }\n  }\n",
  "sourcePath": "/Users/jaredjohnson/Development/code/truffle-react/contracts/IdeoCoin.sol",
  "compiler": {
    "name": "solc",
    "version": "0.4.18+commit.9cf6e910.Emscripten.clang"
  },
  "schemaVersion": "1.0.1",
  "updatedAt": "2018-01-12T14:57:27.058Z"
}